{
  "_format": "hh-sol-artifact-1",
  "contractName": "KYCRegistry",
  "sourceName": "contracts/KYCRegistry.sol",
  "abi": [
    {
      "inputs": [],
      "stateMutability": "nonpayable",
      "type": "constructor"
    },
    {
      "anonymous": false,
      "inputs": [
        {
          "indexed": true,
          "internalType": "address",
          "name": "user",
          "type": "address"
        },
        {
          "indexed": true,
          "internalType": "address",
          "name": "revoker",
          "type": "address"
        },
        {
          "indexed": false,
          "internalType": "string",
          "name": "reason",
          "type": "string"
        }
      ],
      "name": "KYCRevoked",
      "type": "event"
    },
    {
      "anonymous": false,
      "inputs": [
        {
          "indexed": true,
          "internalType": "address",
          "name": "user",
          "type": "address"
        },
        {
          "indexed": false,
          "internalType": "uint256",
          "name": "newExpiryDate",
          "type": "uint256"
        }
      ],
      "name": "KYCUpdated",
      "type": "event"
    },
    {
      "anonymous": false,
      "inputs": [
        {
          "indexed": true,
          "internalType": "address",
          "name": "user",
          "type": "address"
        },
        {
          "indexed": true,
          "internalType": "address",
          "name": "verifier",
          "type": "address"
        },
        {
          "indexed": false,
          "internalType": "uint256",
          "name": "expiryDate",
          "type": "uint256"
        },
        {
          "indexed": false,
          "internalType": "string",
          "name": "documentHash",
          "type": "string"
        }
      ],
      "name": "KYCVerified",
      "type": "event"
    },
    {
      "anonymous": false,
      "inputs": [
        {
          "indexed": false,
          "internalType": "address",
          "name": "account",
          "type": "address"
        }
      ],
      "name": "Paused",
      "type": "event"
    },
    {
      "anonymous": false,
      "inputs": [
        {
          "indexed": true,
          "internalType": "bytes32",
          "name": "role",
          "type": "bytes32"
        },
        {
          "indexed": true,
          "internalType": "bytes32",
          "name": "previousAdminRole",
          "type": "bytes32"
        },
        {
          "indexed": true,
          "internalType": "bytes32",
          "name": "newAdminRole",
          "type": "bytes32"
        }
      ],
      "name": "RoleAdminChanged",
      "type": "event"
    },
    {
      "anonymous": false,
      "inputs": [
        {
          "indexed": true,
          "internalType": "bytes32",
          "name": "role",
          "type": "bytes32"
        },
        {
          "indexed": true,
          "internalType": "address",
          "name": "account",
          "type": "address"
        },
        {
          "indexed": true,
          "internalType": "address",
          "name": "sender",
          "type": "address"
        }
      ],
      "name": "RoleGranted",
      "type": "event"
    },
    {
      "anonymous": false,
      "inputs": [
        {
          "indexed": true,
          "internalType": "bytes32",
          "name": "role",
          "type": "bytes32"
        },
        {
          "indexed": true,
          "internalType": "address",
          "name": "account",
          "type": "address"
        },
        {
          "indexed": true,
          "internalType": "address",
          "name": "sender",
          "type": "address"
        }
      ],
      "name": "RoleRevoked",
      "type": "event"
    },
    {
      "anonymous": false,
      "inputs": [
        {
          "indexed": false,
          "internalType": "address",
          "name": "account",
          "type": "address"
        }
      ],
      "name": "Unpaused",
      "type": "event"
    },
    {
      "anonymous": false,
      "inputs": [
        {
          "indexed": true,
          "internalType": "address",
          "name": "user",
          "type": "address"
        },
        {
          "indexed": false,
          "internalType": "string",
          "name": "reason",
          "type": "string"
        }
      ],
      "name": "UserBlacklisted",
      "type": "event"
    },
    {
      "anonymous": false,
      "inputs": [
        {
          "indexed": true,
          "internalType": "address",
          "name": "user",
          "type": "address"
        }
      ],
      "name": "UserWhitelisted",
      "type": "event"
    },
    {
      "inputs": [],
      "name": "ADMIN_ROLE",
      "outputs": [
        {
          "internalType": "bytes32",
          "name": "",
          "type": "bytes32"
        }
      ],
      "stateMutability": "view",
      "type": "function"
    },
    {
      "inputs": [],
      "name": "DEFAULT_ADMIN_ROLE",
      "outputs": [
        {
          "internalType": "bytes32",
          "name": "",
          "type": "bytes32"
        }
      ],
      "stateMutability": "view",
      "type": "function"
    },
    {
      "inputs": [],
      "name": "DEFAULT_VALIDITY_PERIOD",
      "outputs": [
        {
          "internalType": "uint256",
          "name": "",
          "type": "uint256"
        }
      ],
      "stateMutability": "view",
      "type": "function"
    },
    {
      "inputs": [],
      "name": "KYC_VERIFIER_ROLE",
      "outputs": [
        {
          "internalType": "bytes32",
          "name": "",
          "type": "bytes32"
        }
      ],
      "stateMutability": "view",
      "type": "function"
    },
    {
      "inputs": [
        {
          "internalType": "address",
          "name": "_user",
          "type": "address"
        },
        {
          "internalType": "string",
          "name": "_reason",
          "type": "string"
        }
      ],
      "name": "addToBlacklist",
      "outputs": [],
      "stateMutability": "nonpayable",
      "type": "function"
    },
    {
      "inputs": [
        {
          "internalType": "address[]",
          "name": "_users",
          "type": "address[]"
        },
        {
          "internalType": "string[]",
          "name": "_documentHashes",
          "type": "string[]"
        },
        {
          "internalType": "uint256",
          "name": "_validityPeriod",
          "type": "uint256"
        }
      ],
      "name": "batchVerifyKYC",
      "outputs": [],
      "stateMutability": "nonpayable",
      "type": "function"
    },
    {
      "inputs": [
        {
          "internalType": "address",
          "name": "",
          "type": "address"
        }
      ],
      "name": "blacklist",
      "outputs": [
        {
          "internalType": "bool",
          "name": "",
          "type": "bool"
        }
      ],
      "stateMutability": "view",
      "type": "function"
    },
    {
      "inputs": [
        {
          "internalType": "bytes32",
          "name": "role",
          "type": "bytes32"
        }
      ],
      "name": "getRoleAdmin",
      "outputs": [
        {
          "internalType": "bytes32",
          "name": "",
          "type": "bytes32"
        }
      ],
      "stateMutability": "view",
      "type": "function"
    },
    {
      "inputs": [
        {
          "internalType": "address",
          "name": "_user",
          "type": "address"
        }
      ],
      "name": "getUserKYCData",
      "outputs": [
        {
          "internalType": "bool",
          "name": "verified",
          "type": "bool"
        },
        {
          "internalType": "uint256",
          "name": "verificationDate",
          "type": "uint256"
        },
        {
          "internalType": "uint256",
          "name": "expiryDate",
          "type": "uint256"
        },
        {
          "internalType": "string",
          "name": "documentHash",
          "type": "string"
        },
        {
          "internalType": "address",
          "name": "verifiedBy",
          "type": "address"
        },
        {
          "internalType": "bool",
          "name": "isBlacklisted",
          "type": "bool"
        }
      ],
      "stateMutability": "view",
      "type": "function"
    },
    {
      "inputs": [
        {
          "internalType": "bytes32",
          "name": "role",
          "type": "bytes32"
        },
        {
          "internalType": "address",
          "name": "account",
          "type": "address"
        }
      ],
      "name": "grantRole",
      "outputs": [],
      "stateMutability": "nonpayable",
      "type": "function"
    },
    {
      "inputs": [
        {
          "internalType": "bytes32",
          "name": "role",
          "type": "bytes32"
        },
        {
          "internalType": "address",
          "name": "account",
          "type": "address"
        }
      ],
      "name": "hasRole",
      "outputs": [
        {
          "internalType": "bool",
          "name": "",
          "type": "bool"
        }
      ],
      "stateMutability": "view",
      "type": "function"
    },
    {
      "inputs": [
        {
          "internalType": "address",
          "name": "_user",
          "type": "address"
        }
      ],
      "name": "isKYCExpired",
      "outputs": [
        {
          "internalType": "bool",
          "name": "",
          "type": "bool"
        }
      ],
      "stateMutability": "view",
      "type": "function"
    },
    {
      "inputs": [
        {
          "internalType": "address",
          "name": "_user",
          "type": "address"
        }
      ],
      "name": "isVerified",
      "outputs": [
        {
          "internalType": "bool",
          "name": "",
          "type": "bool"
        }
      ],
      "stateMutability": "view",
      "type": "function"
    },
    {
      "inputs": [
        {
          "internalType": "address",
          "name": "",
          "type": "address"
        }
      ],
      "name": "kycData",
      "outputs": [
        {
          "internalType": "bool",
          "name": "isVerified",
          "type": "bool"
        },
        {
          "internalType": "uint256",
          "name": "verificationDate",
          "type": "uint256"
        },
        {
          "internalType": "uint256",
          "name": "expiryDate",
          "type": "uint256"
        },
        {
          "internalType": "string",
          "name": "documentHash",
          "type": "string"
        },
        {
          "internalType": "address",
          "name": "verifiedBy",
          "type": "address"
        }
      ],
      "stateMutability": "view",
      "type": "function"
    },
    {
      "inputs": [],
      "name": "pause",
      "outputs": [],
      "stateMutability": "nonpayable",
      "type": "function"
    },
    {
      "inputs": [],
      "name": "paused",
      "outputs": [
        {
          "internalType": "bool",
          "name": "",
          "type": "bool"
        }
      ],
      "stateMutability": "view",
      "type": "function"
    },
    {
      "inputs": [
        {
          "internalType": "address",
          "name": "_user",
          "type": "address"
        }
      ],
      "name": "removeFromBlacklist",
      "outputs": [],
      "stateMutability": "nonpayable",
      "type": "function"
    },
    {
      "inputs": [
        {
          "internalType": "bytes32",
          "name": "role",
          "type": "bytes32"
        },
        {
          "internalType": "address",
          "name": "account",
          "type": "address"
        }
      ],
      "name": "renounceRole",
      "outputs": [],
      "stateMutability": "nonpayable",
      "type": "function"
    },
    {
      "inputs": [
        {
          "internalType": "address",
          "name": "_user",
          "type": "address"
        },
        {
          "internalType": "string",
          "name": "_reason",
          "type": "string"
        }
      ],
      "name": "revokeKYC",
      "outputs": [],
      "stateMutability": "nonpayable",
      "type": "function"
    },
    {
      "inputs": [
        {
          "internalType": "bytes32",
          "name": "role",
          "type": "bytes32"
        },
        {
          "internalType": "address",
          "name": "account",
          "type": "address"
        }
      ],
      "name": "revokeRole",
      "outputs": [],
      "stateMutability": "nonpayable",
      "type": "function"
    },
    {
      "inputs": [
        {
          "internalType": "bytes4",
          "name": "interfaceId",
          "type": "bytes4"
        }
      ],
      "name": "supportsInterface",
      "outputs": [
        {
          "internalType": "bool",
          "name": "",
          "type": "bool"
        }
      ],
      "stateMutability": "view",
      "type": "function"
    },
    {
      "inputs": [],
      "name": "unpause",
      "outputs": [],
      "stateMutability": "nonpayable",
      "type": "function"
    },
    {
      "inputs": [
        {
          "internalType": "address",
          "name": "_user",
          "type": "address"
        },
        {
          "internalType": "uint256",
          "name": "_newExpiryDate",
          "type": "uint256"
        }
      ],
      "name": "updateKYCExpiry",
      "outputs": [],
      "stateMutability": "nonpayable",
      "type": "function"
    },
    {
      "inputs": [
        {
          "internalType": "address",
          "name": "_user",
          "type": "address"
        },
        {
          "internalType": "string",
          "name": "_documentHash",
          "type": "string"
        },
        {
          "internalType": "uint256",
          "name": "_validityPeriod",
          "type": "uint256"
        }
      ],
      "name": "verifyKYC",
      "outputs": [],
      "stateMutability": "nonpayable",
      "type": "function"
    }
  ],
  "bytecode": "0x60806040523480156200001157600080fd5b506001805460ff191690556200002960003362000087565b620000557fa49807205ce4d355092ef5a8a18f56e8913cf4a201fbe287825b095693c217753362000087565b620000817f7e46ac3c1d64dfaf23d72892c685e329ed3906359e337e0538fe32e86e75e4423362000087565b62000128565b6000828152602081815260408083206001600160a01b038516845290915290205460ff1662000124576000828152602081815260408083206001600160a01b03851684529091529020805460ff19166001179055620000e33390565b6001600160a01b0316816001600160a01b0316837f2f8788117e7eff1d82e926ec794901d17c78024a50270940304540a733656f0d60405160405180910390a45b5050565b611c0f80620001386000396000f3fe608060405234801561001057600080fd5b50600436106101585760003560e01c80638456cb59116100c3578063b9209e331161007c578063b9209e33146102e6578063d547741f146102f9578063d589cc981461030c578063de74ceb31461031f578063f2e24cdb1461034f578063f9f92be41461035a57600080fd5b80638456cb591461028857806389f899461461029057806390cf73c7146102a557806391d14854146102b85780639381c0eb146102cb578063a217fddf146102de57600080fd5b806336568abe1161011557806336568abe146102275780633691920e1461023a5780633f4ba83a1461024d578063537df3b6146102555780635c975abb1461026857806375b238fc1461027357600080fd5b806301ffc9a71461015d578063076f356514610185578063248a9ca3146101a9578063268f8604146101da5780632e3b7be0146101ff5780632f2ff15d14610214575b600080fd5b61017061016b3660046114af565b61037d565b60405190151581526020015b60405180910390f35b6101986101933660046114f5565b6103b4565b60405161017c959493929190611560565b6101cc6101b73660046115a1565b60009081526020819052604090206001015490565b60405190815260200161017c565b6101ed6101e83660046114f5565b61047a565b60405161017c969594939291906115ba565b61021261020d3660046116bb565b6105cf565b005b610212610222366004611709565b6106a8565b610212610235366004611709565b6106d2565b6102126102483660046116bb565b610750565b610212610864565b6102126102633660046114f5565b610887565b60015460ff16610170565b6101cc600080516020611b9a83398151915281565b610212610943565b6101cc600080516020611bba83398151915281565b6102126102b33660046117e9565b610963565b6101706102c6366004611709565b610bed565b6102126102d93660046118b2565b610c16565b6101cc600081565b6101706102f43660046114f5565b610e2c565b610212610307366004611709565b610f5f565b61021261031a3660046118f8565b610f84565b61017061032d3660046114f5565b6001600160a01b03166000908152600260208190526040909120015442101590565b6101cc6301e1338081565b6101706103683660046114f5565b60036020526000908152604090205460ff1681565b60006001600160e01b03198216637965db0b60e01b14806103ae57506301ffc9a760e01b6001600160e01b03198316145b92915050565b6002602081905260009182526040909120805460018201549282015460038301805460ff909316949391926103e890611922565b80601f016020809104026020016040519081016040528092919081815260200182805461041490611922565b80156104615780601f1061043657610100808354040283529160200191610461565b820191906000526020600020905b81548152906001019060200180831161044457829003601f168201915b505050600490930154919250506001600160a01b031685565b6001600160a01b0381166000908152600260208181526040808420815160a081018352815460ff161515815260018201549381019390935292830154908201526003820180548493849360609385938493849392909183880191906104de90611922565b80601f016020809104026020016040519081016040528092919081815260200182805461050a90611922565b80156105575780601f1061052c57610100808354040283529160200191610557565b820191906000526020600020905b81548152906001019060200180831161053a57829003601f168201915b5050509183525050600491909101546001600160a01b0316602090910152805190915080156105895750428160400151115b60208281015160408085015160608601516080909601516001600160a01b039d909d1660009081526003909452922054929b909a919950929750955060ff169350915050565b600080516020611bba8339815191526105e781611097565b6001600160a01b03831660009081526002602052604090205460ff166106485760405162461bcd60e51b8152602060048201526011602482015270155cd95c881b9bdd081d995c9a599a5959607a1b60448201526064015b60405180910390fd5b6001600160a01b03831660008181526002602052604090819020805460ff19169055513391907fe203b8cb4d6b9e78b50e231327a8cb3605536addbc63dd9265d4e2b45c50d85f9061069b90869061195c565b60405180910390a3505050565b6000828152602081905260409020600101546106c381611097565b6106cd83836110a1565b505050565b6001600160a01b03811633146107425760405162461bcd60e51b815260206004820152602f60248201527f416363657373436f6e74726f6c3a2063616e206f6e6c792072656e6f756e636560448201526e103937b632b9903337b91039b2b63360891b606482015260840161063f565b61074c8282611125565b5050565b600080516020611b9a83398151915261076881611097565b6001600160a01b03831660009081526003602052604090205460ff16156107c75760405162461bcd60e51b8152602060048201526013602482015272105b1c9958591e48189b1858dadb1a5cdd1959606a1b604482015260640161063f565b6001600160a01b0383166000908152600360209081526040808320805460ff19166001179055600290915290205460ff161561081e576001600160a01b0383166000908152600260205260409020805460ff191690555b826001600160a01b03167fcc1cf21b75158e751a071cc4770b92cde8bb2bc34f9187eedd0592b874a5566983604051610857919061195c565b60405180910390a2505050565b600080516020611b9a83398151915261087c81611097565b61088461118a565b50565b600080516020611b9a83398151915261089f81611097565b6001600160a01b03821660009081526003602052604090205460ff166108f95760405162461bcd60e51b815260206004820152600f60248201526e139bdd08189b1858dadb1a5cdd1959608a1b604482015260640161063f565b6001600160a01b038216600081815260036020526040808220805460ff19169055517f7409cb8e690bcd1487fd4fd27dad3fa92388d201ba6f953631d6d6b26299f8499190a25050565b600080516020611b9a83398151915261095b81611097565b6108846111dc565b600080516020611bba83398151915261097b81611097565b610983611217565b82518451146109cc5760405162461bcd60e51b8152602060048201526015602482015274082e4e4c2f240d8cadccee8d040dad2e6dac2e8c6d605b1b604482015260640161063f565b60005b8451811015610be657600360008683815181106109ee576109ee61196f565b6020908102919091018101516001600160a01b031682528101919091526040016000205460ff16158015610a4e575060006001600160a01b0316858281518110610a3a57610a3a61196f565b60200260200101516001600160a01b031614155b15610bd4576000808411610a66576301e13380610a68565b835b610a72904261199b565b90506040518060a00160405280600115158152602001428152602001828152602001868481518110610aa657610aa661196f565b60200260200101518152602001336001600160a01b031681525060026000888581518110610ad657610ad661196f565b6020908102919091018101516001600160a01b031682528181019290925260409081016000208351815460ff1916901515178155918301516001830155820151600282015560608201516003820190610b2f90826119fc565b5060809190910151600490910180546001600160a01b0319166001600160a01b0390921691909117905585513390879084908110610b6f57610b6f61196f565b60200260200101516001600160a01b03167f779debc7a56e4409eb7878d4fab133ac07f6560b1f3ba737df7af41b412fc08483888681518110610bb457610bb461196f565b6020026020010151604051610bca929190611abc565b60405180910390a3505b80610bde81611add565b9150506109cf565b5050505050565b6000918252602082815260408084206001600160a01b0393909316845291905290205460ff1690565b600080516020611bba833981519152610c2e81611097565b610c36611217565b6001600160a01b03841660009081526003602052604090205460ff1615610c955760405162461bcd60e51b8152602060048201526013602482015272155cd95c881a5cc8189b1858dadb1a5cdd1959606a1b604482015260640161063f565b6001600160a01b038416610cdd5760405162461bcd60e51b815260206004820152600f60248201526e496e76616c6964206164647265737360881b604482015260640161063f565b6000835111610d275760405162461bcd60e51b8152602060048201526016602482015275111bd8dd5b595b9d081a185cda081c995c5d5a5c995960521b604482015260640161063f565b6000808311610d3a576301e13380610d3c565b825b610d46904261199b565b6040805160a0810182526001808252426020808401918252838501868152606085018b81523360808701526001600160a01b038d166000908152600293849052969096208551815460ff19169015151781559251938301939093559151918101919091559151929350916003820190610dbf90826119fc565b5060809190910151600490910180546001600160a01b0319166001600160a01b0392831617905560405133918716907f779debc7a56e4409eb7878d4fab133ac07f6560b1f3ba737df7af41b412fc08490610e1d9085908990611abc565b60405180910390a35050505050565b6001600160a01b03811660009081526003602052604081205460ff1615610e5557506000919050565b6001600160a01b0382166000908152600260208181526040808420815160a081018352815460ff16151581526001820154938101939093529283015490820152600382018054919291606084019190610ead90611922565b80601f0160208091040260200160405190810160405280929190818152602001828054610ed990611922565b8015610f265780601f10610efb57610100808354040283529160200191610f26565b820191906000526020600020905b815481529060010190602001808311610f0957829003601f168201915b5050509183525050600491909101546001600160a01b031660209091015280519091508015610f585750428160400151115b9392505050565b600082815260208190526040902060010154610f7a81611097565b6106cd8383611125565b600080516020611bba833981519152610f9c81611097565b6001600160a01b03831660009081526002602052604090205460ff16610ff85760405162461bcd60e51b8152602060048201526011602482015270155cd95c881b9bdd081d995c9a599a5959607a1b604482015260640161063f565b4282116110475760405162461bcd60e51b815260206004820152601d60248201527f4578706972792064617465206d75737420626520696e20667574757265000000604482015260640161063f565b6001600160a01b03831660008181526002602081905260409182902001849055517f08365a96b40b6cbebec894a18a30c982467e3672b492c273cbaf1c3cd82903c0906108579085815260200190565b610884813361125f565b6110ab8282610bed565b61074c576000828152602081815260408083206001600160a01b03851684529091529020805460ff191660011790556110e13390565b6001600160a01b0316816001600160a01b0316837f2f8788117e7eff1d82e926ec794901d17c78024a50270940304540a733656f0d60405160405180910390a45050565b61112f8282610bed565b1561074c576000828152602081815260408083206001600160a01b0385168085529252808320805460ff1916905551339285917ff6391f5c32d9c69d2a47ea670b442974b53935d1edc7fd64eb21e047a839171b9190a45050565b6111926112b8565b6001805460ff191690557f5db9ee0a495bf2e6ff9c91a7834c1ba4fdd244a5e8aa4e537bd38aeae4b073aa335b6040516001600160a01b03909116815260200160405180910390a1565b6111e4611217565b6001805460ff1916811790557f62e78cea01bee320cd4e420270b5ea74000d11b0c9f74754ebdbfc544b05a258336111bf565b60015460ff161561125d5760405162461bcd60e51b815260206004820152601060248201526f14185d5cd8589b194e881c185d5cd95960821b604482015260640161063f565b565b6112698282610bed565b61074c5761127681611301565b611281836020611313565b604051602001611292929190611af6565b60408051601f198184030181529082905262461bcd60e51b825261063f9160040161195c565b60015460ff1661125d5760405162461bcd60e51b815260206004820152601460248201527314185d5cd8589b194e881b9bdd081c185d5cd95960621b604482015260640161063f565b60606103ae6001600160a01b03831660145b60606000611322836002611b6b565b61132d90600261199b565b67ffffffffffffffff81111561134557611345611604565b6040519080825280601f01601f19166020018201604052801561136f576020820181803683370190505b509050600360fc1b8160008151811061138a5761138a61196f565b60200101906001600160f81b031916908160001a905350600f60fb1b816001815181106113b9576113b961196f565b60200101906001600160f81b031916908160001a90535060006113dd846002611b6b565b6113e890600161199b565b90505b6001811115611460576f181899199a1a9b1b9c1cb0b131b232b360811b85600f166010811061141c5761141c61196f565b1a60f81b8282815181106114325761143261196f565b60200101906001600160f81b031916908160001a90535060049490941c9361145981611b82565b90506113eb565b508315610f585760405162461bcd60e51b815260206004820181905260248201527f537472696e67733a20686578206c656e67746820696e73756666696369656e74604482015260640161063f565b6000602082840312156114c157600080fd5b81356001600160e01b031981168114610f5857600080fd5b80356001600160a01b03811681146114f057600080fd5b919050565b60006020828403121561150757600080fd5b610f58826114d9565b60005b8381101561152b578181015183820152602001611513565b50506000910152565b6000815180845261154c816020860160208601611510565b601f01601f19169290920160200192915050565b851515815284602082015283604082015260a06060820152600061158760a0830185611534565b905060018060a01b03831660808301529695505050505050565b6000602082840312156115b357600080fd5b5035919050565b861515815285602082015284604082015260c0606082015260006115e160c0830186611534565b6001600160a01b039490941660808301525090151560a090910152949350505050565b634e487b7160e01b600052604160045260246000fd5b604051601f8201601f1916810167ffffffffffffffff8111828210171561164357611643611604565b604052919050565b600082601f83011261165c57600080fd5b813567ffffffffffffffff81111561167657611676611604565b611689601f8201601f191660200161161a565b81815284602083860101111561169e57600080fd5b816020850160208301376000918101602001919091529392505050565b600080604083850312156116ce57600080fd5b6116d7836114d9565b9150602083013567ffffffffffffffff8111156116f357600080fd5b6116ff8582860161164b565b9150509250929050565b6000806040838503121561171c57600080fd5b8235915061172c602084016114d9565b90509250929050565b600067ffffffffffffffff82111561174f5761174f611604565b5060051b60200190565b600082601f83011261176a57600080fd5b8135602061177f61177a83611735565b61161a565b82815260059290921b8401810191818101908684111561179e57600080fd5b8286015b848110156117de57803567ffffffffffffffff8111156117c25760008081fd5b6117d08986838b010161164b565b8452509183019183016117a2565b509695505050505050565b6000806000606084860312156117fe57600080fd5b833567ffffffffffffffff8082111561181657600080fd5b818601915086601f83011261182a57600080fd5b8135602061183a61177a83611735565b82815260059290921b8401810191818101908a84111561185957600080fd5b948201945b8386101561187e5761186f866114d9565b8252948201949082019061185e565b9750508701359250508082111561189457600080fd5b506118a186828701611759565b925050604084013590509250925092565b6000806000606084860312156118c757600080fd5b6118d0846114d9565b9250602084013567ffffffffffffffff8111156118ec57600080fd5b6118a18682870161164b565b6000806040838503121561190b57600080fd5b611914836114d9565b946020939093013593505050565b600181811c9082168061193657607f821691505b60208210810361195657634e487b7160e01b600052602260045260246000fd5b50919050565b602081526000610f586020830184611534565b634e487b7160e01b600052603260045260246000fd5b634e487b7160e01b600052601160045260246000fd5b808201808211156103ae576103ae611985565b601f8211156106cd57600081815260208120601f850160051c810160208610156119d55750805b601f850160051c820191505b818110156119f4578281556001016119e1565b505050505050565b815167ffffffffffffffff811115611a1657611a16611604565b611a2a81611a248454611922565b846119ae565b602080601f831160018114611a5f5760008415611a475750858301515b600019600386901b1c1916600185901b1785556119f4565b600085815260208120601f198616915b82811015611a8e57888601518255948401946001909101908401611a6f565b5085821015611aac5787850151600019600388901b60f8161c191681555b5050505050600190811b01905550565b828152604060208201526000611ad56040830184611534565b949350505050565b600060018201611aef57611aef611985565b5060010190565b7f416363657373436f6e74726f6c3a206163636f756e7420000000000000000000815260008351611b2e816017850160208801611510565b7001034b99036b4b9b9b4b733903937b6329607d1b6017918401918201528351611b5f816028840160208801611510565b01602801949350505050565b80820281158282048414176103ae576103ae611985565b600081611b9157611b91611985565b50600019019056fea49807205ce4d355092ef5a8a18f56e8913cf4a201fbe287825b095693c217757e46ac3c1d64dfaf23d72892c685e329ed3906359e337e0538fe32e86e75e442a2646970667358221220a1de8a71b95eecf6e417e2c286c4583863c61a487a9562de23e62f51c324ef2664736f6c63430008140033",
  "linkReferences": {},
  "deployedLinkReferences": {}
}