{
  "_format": "hh-sol-artifact-1",
  "contractName": "OPNFractionalization",
  "sourceName": "contracts/OPNFractionalization.sol",
  "abi": [
    {
      "inputs": [
        {
          "internalType": "string",
          "name": "_uri",
          "type": "string"
        },
        {
          "internalType": "address",
          "name": "_feeRecipient",
          "type": "address"
        }
      ],
      "stateMutability": "nonpayable",
      "type": "constructor"
    },
    {
      "anonymous": false,
      "inputs": [
        {
          "indexed": true,
          "internalType": "address",
          "name": "account",
          "type": "address"
        },
        {
          "indexed": true,
          "internalType": "address",
          "name": "operator",
          "type": "address"
        },
        {
          "indexed": false,
          "internalType": "bool",
          "name": "approved",
          "type": "bool"
        }
      ],
      "name": "ApprovalForAll",
      "type": "event"
    },
    {
      "anonymous": false,
      "inputs": [
        {
          "indexed": true,
          "internalType": "address",
          "name": "oldRecipient",
          "type": "address"
        },
        {
          "indexed": true,
          "internalType": "address",
          "name": "newRecipient",
          "type": "address"
        }
      ],
      "name": "FeeRecipientUpdated",
      "type": "event"
    },
    {
      "anonymous": false,
      "inputs": [
        {
          "indexed": true,
          "internalType": "uint256",
          "name": "tokenId",
          "type": "uint256"
        },
        {
          "indexed": true,
          "internalType": "address",
          "name": "buyer",
          "type": "address"
        },
        {
          "indexed": false,
          "internalType": "uint256",
          "name": "amount",
          "type": "uint256"
        },
        {
          "indexed": false,
          "internalType": "uint256",
          "name": "totalCost",
          "type": "uint256"
        }
      ],
      "name": "FractionsPurchased",
      "type": "event"
    },
    {
      "anonymous": false,
      "inputs": [
        {
          "indexed": false,
          "internalType": "address",
          "name": "account",
          "type": "address"
        }
      ],
      "name": "Paused",
      "type": "event"
    },
    {
      "anonymous": false,
      "inputs": [
        {
          "indexed": false,
          "internalType": "uint256",
          "name": "oldFee",
          "type": "uint256"
        },
        {
          "indexed": false,
          "internalType": "uint256",
          "name": "newFee",
          "type": "uint256"
        }
      ],
      "name": "PlatformFeeUpdated",
      "type": "event"
    },
    {
      "anonymous": false,
      "inputs": [
        {
          "indexed": true,
          "internalType": "uint256",
          "name": "requestId",
          "type": "uint256"
        },
        {
          "indexed": true,
          "internalType": "uint256",
          "name": "tokenId",
          "type": "uint256"
        },
        {
          "indexed": true,
          "internalType": "address",
          "name": "approver",
          "type": "address"
        }
      ],
      "name": "RequestApproved",
      "type": "event"
    },
    {
      "anonymous": false,
      "inputs": [
        {
          "indexed": true,
          "internalType": "uint256",
          "name": "requestId",
          "type": "uint256"
        },
        {
          "indexed": true,
          "internalType": "uint256",
          "name": "assetId",
          "type": "uint256"
        },
        {
          "indexed": true,
          "internalType": "address",
          "name": "proposer",
          "type": "address"
        }
      ],
      "name": "RequestAutoApproved",
      "type": "event"
    },
    {
      "anonymous": false,
      "inputs": [
        {
          "indexed": true,
          "internalType": "uint256",
          "name": "requestId",
          "type": "uint256"
        },
        {
          "indexed": true,
          "internalType": "address",
          "name": "canceller",
          "type": "address"
        }
      ],
      "name": "RequestCancelled",
      "type": "event"
    },
    {
      "anonymous": false,
      "inputs": [
        {
          "indexed": true,
          "internalType": "uint256",
          "name": "requestId",
          "type": "uint256"
        },
        {
          "indexed": true,
          "internalType": "address",
          "name": "proposer",
          "type": "address"
        },
        {
          "indexed": false,
          "internalType": "string",
          "name": "assetName",
          "type": "string"
        },
        {
          "indexed": false,
          "internalType": "uint256",
          "name": "totalFractions",
          "type": "uint256"
        },
        {
          "indexed": false,
          "internalType": "uint256",
          "name": "pricePerFraction",
          "type": "uint256"
        }
      ],
      "name": "RequestCreated",
      "type": "event"
    },
    {
      "anonymous": false,
      "inputs": [
        {
          "indexed": true,
          "internalType": "uint256",
          "name": "requestId",
          "type": "uint256"
        },
        {
          "indexed": true,
          "internalType": "address",
          "name": "rejecter",
          "type": "address"
        },
        {
          "indexed": false,
          "internalType": "string",
          "name": "reason",
          "type": "string"
        }
      ],
      "name": "RequestRejected",
      "type": "event"
    },
    {
      "anonymous": false,
      "inputs": [
        {
          "indexed": true,
          "internalType": "bytes32",
          "name": "role",
          "type": "bytes32"
        },
        {
          "indexed": true,
          "internalType": "bytes32",
          "name": "previousAdminRole",
          "type": "bytes32"
        },
        {
          "indexed": true,
          "internalType": "bytes32",
          "name": "newAdminRole",
          "type": "bytes32"
        }
      ],
      "name": "RoleAdminChanged",
      "type": "event"
    },
    {
      "anonymous": false,
      "inputs": [
        {
          "indexed": true,
          "internalType": "bytes32",
          "name": "role",
          "type": "bytes32"
        },
        {
          "indexed": true,
          "internalType": "address",
          "name": "account",
          "type": "address"
        },
        {
          "indexed": true,
          "internalType": "address",
          "name": "sender",
          "type": "address"
        }
      ],
      "name": "RoleGranted",
      "type": "event"
    },
    {
      "anonymous": false,
      "inputs": [
        {
          "indexed": true,
          "internalType": "bytes32",
          "name": "role",
          "type": "bytes32"
        },
        {
          "indexed": true,
          "internalType": "address",
          "name": "account",
          "type": "address"
        },
        {
          "indexed": true,
          "internalType": "address",
          "name": "sender",
          "type": "address"
        }
      ],
      "name": "RoleRevoked",
      "type": "event"
    },
    {
      "anonymous": false,
      "inputs": [
        {
          "indexed": true,
          "internalType": "address",
          "name": "user",
          "type": "address"
        },
        {
          "indexed": true,
          "internalType": "uint256",
          "name": "assetId",
          "type": "uint256"
        },
        {
          "indexed": false,
          "internalType": "uint256",
          "name": "amount",
          "type": "uint256"
        },
        {
          "indexed": false,
          "internalType": "uint256",
          "name": "unlockTime",
          "type": "uint256"
        }
      ],
      "name": "SharesLocked",
      "type": "event"
    },
    {
      "anonymous": false,
      "inputs": [
        {
          "indexed": true,
          "internalType": "address",
          "name": "from",
          "type": "address"
        },
        {
          "indexed": true,
          "internalType": "address",
          "name": "to",
          "type": "address"
        },
        {
          "indexed": true,
          "internalType": "uint256",
          "name": "assetId",
          "type": "uint256"
        },
        {
          "indexed": false,
          "internalType": "uint256",
          "name": "amount",
          "type": "uint256"
        }
      ],
      "name": "SharesTransferred",
      "type": "event"
    },
    {
      "anonymous": false,
      "inputs": [
        {
          "indexed": true,
          "internalType": "address",
          "name": "user",
          "type": "address"
        },
        {
          "indexed": true,
          "internalType": "uint256",
          "name": "assetId",
          "type": "uint256"
        },
        {
          "indexed": false,
          "internalType": "uint256",
          "name": "amount",
          "type": "uint256"
        }
      ],
      "name": "SharesUnlocked",
      "type": "event"
    },
    {
      "anonymous": false,
      "inputs": [
        {
          "indexed": true,
          "internalType": "address",
          "name": "operator",
          "type": "address"
        },
        {
          "indexed": true,
          "internalType": "address",
          "name": "from",
          "type": "address"
        },
        {
          "indexed": true,
          "internalType": "address",
          "name": "to",
          "type": "address"
        },
        {
          "indexed": false,
          "internalType": "uint256[]",
          "name": "ids",
          "type": "uint256[]"
        },
        {
          "indexed": false,
          "internalType": "uint256[]",
          "name": "values",
          "type": "uint256[]"
        }
      ],
      "name": "TransferBatch",
      "type": "event"
    },
    {
      "anonymous": false,
      "inputs": [
        {
          "indexed": true,
          "internalType": "address",
          "name": "operator",
          "type": "address"
        },
        {
          "indexed": true,
          "internalType": "address",
          "name": "from",
          "type": "address"
        },
        {
          "indexed": true,
          "internalType": "address",
          "name": "to",
          "type": "address"
        },
        {
          "indexed": false,
          "internalType": "uint256",
          "name": "id",
          "type": "uint256"
        },
        {
          "indexed": false,
          "internalType": "uint256",
          "name": "value",
          "type": "uint256"
        }
      ],
      "name": "TransferSingle",
      "type": "event"
    },
    {
      "anonymous": false,
      "inputs": [
        {
          "indexed": false,
          "internalType": "string",
          "name": "value",
          "type": "string"
        },
        {
          "indexed": true,
          "internalType": "uint256",
          "name": "id",
          "type": "uint256"
        }
      ],
      "name": "URI",
      "type": "event"
    },
    {
      "anonymous": false,
      "inputs": [
        {
          "indexed": false,
          "internalType": "address",
          "name": "account",
          "type": "address"
        }
      ],
      "name": "Unpaused",
      "type": "event"
    },
    {
      "inputs": [],
      "name": "ADMIN_ROLE",
      "outputs": [
        {
          "internalType": "bytes32",
          "name": "",
          "type": "bytes32"
        }
      ],
      "stateMutability": "view",
      "type": "function"
    },
    {
      "inputs": [],
      "name": "DEFAULT_ADMIN_ROLE",
      "outputs": [
        {
          "internalType": "bytes32",
          "name": "",
          "type": "bytes32"
        }
      ],
      "stateMutability": "view",
      "type": "function"
    },
    {
      "inputs": [],
      "name": "EMERGENCY_ROLE",
      "outputs": [
        {
          "internalType": "bytes32",
          "name": "",
          "type": "bytes32"
        }
      ],
      "stateMutability": "view",
      "type": "function"
    },
    {
      "inputs": [],
      "name": "MAX_SUPPLY",
      "outputs": [
        {
          "internalType": "uint256",
          "name": "",
          "type": "uint256"
        }
      ],
      "stateMutability": "view",
      "type": "function"
    },
    {
      "inputs": [
        {
          "internalType": "uint256",
          "name": "",
          "type": "uint256"
        }
      ],
      "name": "assetDetails",
      "outputs": [
        {
          "internalType": "uint256",
          "name": "tokenId",
          "type": "uint256"
        },
        {
          "internalType": "uint256",
          "name": "requestId",
          "type": "uint256"
        },
        {
          "internalType": "address",
          "name": "creator",
          "type": "address"
        },
        {
          "internalType": "uint256",
          "name": "totalSupply",
          "type": "uint256"
        },
        {
          "internalType": "uint256",
          "name": "availableSupply",
          "type": "uint256"
        },
        {
          "internalType": "uint256",
          "name": "pricePerFraction",
          "type": "uint256"
        },
        {
          "internalType": "uint256",
          "name": "minPurchaseAmount",
          "type": "uint256"
        },
        {
          "internalType": "uint256",
          "name": "maxPurchaseAmount",
          "type": "uint256"
        },
        {
          "internalType": "enum OPNFractionalization.ShareType",
          "name": "shareType",
          "type": "uint8"
        },
        {
          "internalType": "bool",
          "name": "isActive",
          "type": "bool"
        },
        {
          "internalType": "uint256",
          "name": "totalRevenue",
          "type": "uint256"
        }
      ],
      "stateMutability": "view",
      "type": "function"
    },
    {
      "inputs": [
        {
          "internalType": "address",
          "name": "account",
          "type": "address"
        },
        {
          "internalType": "uint256",
          "name": "id",
          "type": "uint256"
        }
      ],
      "name": "balanceOf",
      "outputs": [
        {
          "internalType": "uint256",
          "name": "",
          "type": "uint256"
        }
      ],
      "stateMutability": "view",
      "type": "function"
    },
    {
      "inputs": [
        {
          "internalType": "address[]",
          "name": "accounts",
          "type": "address[]"
        },
        {
          "internalType": "uint256[]",
          "name": "ids",
          "type": "uint256[]"
        }
      ],
      "name": "balanceOfBatch",
      "outputs": [
        {
          "internalType": "uint256[]",
          "name": "",
          "type": "uint256[]"
        }
      ],
      "stateMutability": "view",
      "type": "function"
    },
    {
      "inputs": [
        {
          "internalType": "string",
          "name": "_assetType",
          "type": "string"
        },
        {
          "internalType": "string",
          "name": "_assetName",
          "type": "string"
        },
        {
          "internalType": "string",
          "name": "_assetDescription",
          "type": "string"
        },
        {
          "internalType": "string",
          "name": "_assetImageUrl",
          "type": "string"
        },
        {
          "internalType": "uint256",
          "name": "_totalFractions",
          "type": "uint256"
        },
        {
          "internalType": "uint256",
          "name": "_pricePerFraction",
          "type": "uint256"
        },
        {
          "internalType": "uint256",
          "name": "_minPurchaseAmount",
          "type": "uint256"
        },
        {
          "internalType": "uint256",
          "name": "_maxPurchaseAmount",
          "type": "uint256"
        },
        {
          "internalType": "enum OPNFractionalization.ShareType",
          "name": "_shareType",
          "type": "uint8"
        }
      ],
      "name": "createFractionalizationRequest",
      "outputs": [
        {
          "internalType": "uint256",
          "name": "",
          "type": "uint256"
        }
      ],
      "stateMutability": "nonpayable",
      "type": "function"
    },
    {
      "inputs": [],
      "name": "feeRecipient",
      "outputs": [
        {
          "internalType": "address",
          "name": "",
          "type": "address"
        }
      ],
      "stateMutability": "view",
      "type": "function"
    },
    {
      "inputs": [],
      "name": "getActiveAssets",
      "outputs": [
        {
          "internalType": "uint256[]",
          "name": "",
          "type": "uint256[]"
        }
      ],
      "stateMutability": "view",
      "type": "function"
    },
    {
      "inputs": [],
      "name": "getPendingRequests",
      "outputs": [
        {
          "internalType": "uint256[]",
          "name": "",
          "type": "uint256[]"
        }
      ],
      "stateMutability": "view",
      "type": "function"
    },
    {
      "inputs": [
        {
          "internalType": "bytes32",
          "name": "role",
          "type": "bytes32"
        }
      ],
      "name": "getRoleAdmin",
      "outputs": [
        {
          "internalType": "bytes32",
          "name": "",
          "type": "bytes32"
        }
      ],
      "stateMutability": "view",
      "type": "function"
    },
    {
      "inputs": [
        {
          "internalType": "address",
          "name": "_user",
          "type": "address"
        },
        {
          "internalType": "uint256",
          "name": "_assetId",
          "type": "uint256"
        }
      ],
      "name": "getUserOwnershipPercentage",
      "outputs": [
        {
          "internalType": "uint256",
          "name": "percentage",
          "type": "uint256"
        },
        {
          "internalType": "uint256",
          "name": "shares",
          "type": "uint256"
        }
      ],
      "stateMutability": "view",
      "type": "function"
    },
    {
      "inputs": [
        {
          "internalType": "address",
          "name": "_user",
          "type": "address"
        }
      ],
      "name": "getUserRequests",
      "outputs": [
        {
          "internalType": "uint256[]",
          "name": "",
          "type": "uint256[]"
        }
      ],
      "stateMutability": "view",
      "type": "function"
    },
    {
      "inputs": [
        {
          "internalType": "address",
          "name": "_user",
          "type": "address"
        },
        {
          "internalType": "uint256",
          "name": "_assetId",
          "type": "uint256"
        }
      ],
      "name": "getUserShares",
      "outputs": [
        {
          "internalType": "uint256",
          "name": "",
          "type": "uint256"
        }
      ],
      "stateMutability": "view",
      "type": "function"
    },
    {
      "inputs": [
        {
          "internalType": "bytes32",
          "name": "role",
          "type": "bytes32"
        },
        {
          "internalType": "address",
          "name": "account",
          "type": "address"
        }
      ],
      "name": "grantRole",
      "outputs": [],
      "stateMutability": "nonpayable",
      "type": "function"
    },
    {
      "inputs": [
        {
          "internalType": "bytes32",
          "name": "role",
          "type": "bytes32"
        },
        {
          "internalType": "address",
          "name": "account",
          "type": "address"
        }
      ],
      "name": "hasRole",
      "outputs": [
        {
          "internalType": "bool",
          "name": "",
          "type": "bool"
        }
      ],
      "stateMutability": "view",
      "type": "function"
    },
    {
      "inputs": [],
      "name": "isAlphaMode",
      "outputs": [
        {
          "internalType": "bool",
          "name": "",
          "type": "bool"
        }
      ],
      "stateMutability": "view",
      "type": "function"
    },
    {
      "inputs": [
        {
          "internalType": "address",
          "name": "account",
          "type": "address"
        },
        {
          "internalType": "address",
          "name": "operator",
          "type": "address"
        }
      ],
      "name": "isApprovedForAll",
      "outputs": [
        {
          "internalType": "bool",
          "name": "",
          "type": "bool"
        }
      ],
      "stateMutability": "view",
      "type": "function"
    },
    {
      "inputs": [
        {
          "internalType": "uint256",
          "name": "_assetId",
          "type": "uint256"
        },
        {
          "internalType": "uint256",
          "name": "_amount",
          "type": "uint256"
        },
        {
          "internalType": "uint256",
          "name": "_lockDuration",
          "type": "uint256"
        }
      ],
      "name": "lockShares",
      "outputs": [],
      "stateMutability": "nonpayable",
      "type": "function"
    },
    {
      "inputs": [
        {
          "internalType": "address",
          "name": "",
          "type": "address"
        },
        {
          "internalType": "address",
          "name": "",
          "type": "address"
        },
        {
          "internalType": "uint256[]",
          "name": "",
          "type": "uint256[]"
        },
        {
          "internalType": "uint256[]",
          "name": "",
          "type": "uint256[]"
        },
        {
          "internalType": "bytes",
          "name": "",
          "type": "bytes"
        }
      ],
      "name": "onERC1155BatchReceived",
      "outputs": [
        {
          "internalType": "bytes4",
          "name": "",
          "type": "bytes4"
        }
      ],
      "stateMutability": "nonpayable",
      "type": "function"
    },
    {
      "inputs": [
        {
          "internalType": "address",
          "name": "",
          "type": "address"
        },
        {
          "internalType": "address",
          "name": "",
          "type": "address"
        },
        {
          "internalType": "uint256",
          "name": "",
          "type": "uint256"
        },
        {
          "internalType": "uint256",
          "name": "",
          "type": "uint256"
        },
        {
          "internalType": "bytes",
          "name": "",
          "type": "bytes"
        }
      ],
      "name": "onERC1155Received",
      "outputs": [
        {
          "internalType": "bytes4",
          "name": "",
          "type": "bytes4"
        }
      ],
      "stateMutability": "nonpayable",
      "type": "function"
    },
    {
      "inputs": [],
      "name": "pause",
      "outputs": [],
      "stateMutability": "nonpayable",
      "type": "function"
    },
    {
      "inputs": [],
      "name": "paused",
      "outputs": [
        {
          "internalType": "bool",
          "name": "",
          "type": "bool"
        }
      ],
      "stateMutability": "view",
      "type": "function"
    },
    {
      "inputs": [],
      "name": "platformFee",
      "outputs": [
        {
          "internalType": "uint256",
          "name": "",
          "type": "uint256"
        }
      ],
      "stateMutability": "view",
      "type": "function"
    },
    {
      "inputs": [
        {
          "internalType": "uint256",
          "name": "_assetId",
          "type": "uint256"
        },
        {
          "internalType": "uint256",
          "name": "_shareAmount",
          "type": "uint256"
        },
        {
          "internalType": "uint256",
          "name": "_maxPricePerShare",
          "type": "uint256"
        }
      ],
      "name": "purchaseShares",
      "outputs": [],
      "stateMutability": "payable",
      "type": "function"
    },
    {
      "inputs": [
        {
          "internalType": "bytes32",
          "name": "role",
          "type": "bytes32"
        },
        {
          "internalType": "address",
          "name": "account",
          "type": "address"
        }
      ],
      "name": "renounceRole",
      "outputs": [],
      "stateMutability": "nonpayable",
      "type": "function"
    },
    {
      "inputs": [
        {
          "internalType": "uint256",
          "name": "",
          "type": "uint256"
        }
      ],
      "name": "requests",
      "outputs": [
        {
          "internalType": "uint256",
          "name": "requestId",
          "type": "uint256"
        },
        {
          "internalType": "address",
          "name": "proposer",
          "type": "address"
        },
        {
          "internalType": "string",
          "name": "assetType",
          "type": "string"
        },
        {
          "internalType": "string",
          "name": "assetName",
          "type": "string"
        },
        {
          "internalType": "string",
          "name": "assetDescription",
          "type": "string"
        },
        {
          "internalType": "string",
          "name": "assetImageUrl",
          "type": "string"
        },
        {
          "internalType": "uint256",
          "name": "totalFractions",
          "type": "uint256"
        },
        {
          "internalType": "uint256",
          "name": "pricePerFraction",
          "type": "uint256"
        },
        {
          "internalType": "uint256",
          "name": "minPurchaseAmount",
          "type": "uint256"
        },
        {
          "internalType": "uint256",
          "name": "maxPurchaseAmount",
          "type": "uint256"
        },
        {
          "internalType": "enum OPNFractionalization.ShareType",
          "name": "shareType",
          "type": "uint8"
        },
        {
          "internalType": "enum OPNFractionalization.RequestStatus",
          "name": "status",
          "type": "uint8"
        },
        {
          "internalType": "uint256",
          "name": "tokenId",
          "type": "uint256"
        },
        {
          "internalType": "uint256",
          "name": "timestamp",
          "type": "uint256"
        }
      ],
      "stateMutability": "view",
      "type": "function"
    },
    {
      "inputs": [
        {
          "internalType": "bytes32",
          "name": "role",
          "type": "bytes32"
        },
        {
          "internalType": "address",
          "name": "account",
          "type": "address"
        }
      ],
      "name": "revokeRole",
      "outputs": [],
      "stateMutability": "nonpayable",
      "type": "function"
    },
    {
      "inputs": [
        {
          "internalType": "address",
          "name": "from",
          "type": "address"
        },
        {
          "internalType": "address",
          "name": "to",
          "type": "address"
        },
        {
          "internalType": "uint256[]",
          "name": "ids",
          "type": "uint256[]"
        },
        {
          "internalType": "uint256[]",
          "name": "amounts",
          "type": "uint256[]"
        },
        {
          "internalType": "bytes",
          "name": "data",
          "type": "bytes"
        }
      ],
      "name": "safeBatchTransferFrom",
      "outputs": [],
      "stateMutability": "nonpayable",
      "type": "function"
    },
    {
      "inputs": [
        {
          "internalType": "address",
          "name": "from",
          "type": "address"
        },
        {
          "internalType": "address",
          "name": "to",
          "type": "address"
        },
        {
          "internalType": "uint256",
          "name": "id",
          "type": "uint256"
        },
        {
          "internalType": "uint256",
          "name": "amount",
          "type": "uint256"
        },
        {
          "internalType": "bytes",
          "name": "data",
          "type": "bytes"
        }
      ],
      "name": "safeTransferFrom",
      "outputs": [],
      "stateMutability": "nonpayable",
      "type": "function"
    },
    {
      "inputs": [
        {
          "internalType": "address",
          "name": "operator",
          "type": "address"
        },
        {
          "internalType": "bool",
          "name": "approved",
          "type": "bool"
        }
      ],
      "name": "setApprovalForAll",
      "outputs": [],
      "stateMutability": "nonpayable",
      "type": "function"
    },
    {
      "inputs": [
        {
          "internalType": "address",
          "name": "",
          "type": "address"
        },
        {
          "internalType": "uint256",
          "name": "",
          "type": "uint256"
        }
      ],
      "name": "shareLocks",
      "outputs": [
        {
          "internalType": "uint256",
          "name": "amount",
          "type": "uint256"
        },
        {
          "internalType": "uint256",
          "name": "unlockTime",
          "type": "uint256"
        }
      ],
      "stateMutability": "view",
      "type": "function"
    },
    {
      "inputs": [
        {
          "internalType": "bytes4",
          "name": "interfaceId",
          "type": "bytes4"
        }
      ],
      "name": "supportsInterface",
      "outputs": [
        {
          "internalType": "bool",
          "name": "",
          "type": "bool"
        }
      ],
      "stateMutability": "view",
      "type": "function"
    },
    {
      "inputs": [
        {
          "internalType": "address",
          "name": "_to",
          "type": "address"
        },
        {
          "internalType": "uint256",
          "name": "_assetId",
          "type": "uint256"
        },
        {
          "internalType": "uint256",
          "name": "_amount",
          "type": "uint256"
        }
      ],
      "name": "transferShares",
      "outputs": [],
      "stateMutability": "nonpayable",
      "type": "function"
    },
    {
      "inputs": [
        {
          "internalType": "uint256",
          "name": "_assetId",
          "type": "uint256"
        }
      ],
      "name": "unlockShares",
      "outputs": [],
      "stateMutability": "nonpayable",
      "type": "function"
    },
    {
      "inputs": [],
      "name": "unpause",
      "outputs": [],
      "stateMutability": "nonpayable",
      "type": "function"
    },
    {
      "inputs": [
        {
          "internalType": "address",
          "name": "_newRecipient",
          "type": "address"
        }
      ],
      "name": "updateFeeRecipient",
      "outputs": [],
      "stateMutability": "nonpayable",
      "type": "function"
    },
    {
      "inputs": [
        {
          "internalType": "uint256",
          "name": "_newFee",
          "type": "uint256"
        }
      ],
      "name": "updatePlatformFee",
      "outputs": [],
      "stateMutability": "nonpayable",
      "type": "function"
    },
    {
      "inputs": [
        {
          "internalType": "uint256",
          "name": "",
          "type": "uint256"
        }
      ],
      "name": "uri",
      "outputs": [
        {
          "internalType": "string",
          "name": "",
          "type": "string"
        }
      ],
      "stateMutability": "view",
      "type": "function"
    },
    {
      "inputs": [
        {
          "internalType": "address",
          "name": "",
          "type": "address"
        },
        {
          "internalType": "uint256",
          "name": "",
          "type": "uint256"
        }
      ],
      "name": "userRequests",
      "outputs": [
        {
          "internalType": "uint256",
          "name": "",
          "type": "uint256"
        }
      ],
      "stateMutability": "view",
      "type": "function"
    },
    {
      "inputs": [
        {
          "internalType": "address",
          "name": "",
          "type": "address"
        },
        {
          "internalType": "uint256",
          "name": "",
          "type": "uint256"
        }
      ],
      "name": "userShares",
      "outputs": [
        {
          "internalType": "uint256",
          "name": "",
          "type": "uint256"
        }
      ],
      "stateMutability": "view",
      "type": "function"
    }
  ],
  "bytecode": "0x608060405260fa6006553480156200001657600080fd5b50604051620041fc380380620041fc833981016040819052620000399162000221565b81620000458162000138565b5060016004556005805460ff191690556001600160a01b038116620000b05760405162461bcd60e51b815260206004820152601560248201527f496e76616c69642066656520726563697069656e740000000000000000000000604482015260640160405180910390fd5b600780546001600160a01b0319166001600160a01b038316179055620000d86000336200014a565b620001047fa49807205ce4d355092ef5a8a18f56e8913cf4a201fbe287825b095693c21775336200014a565b620001307fbf233dd2aafeb4d50879c4aa5c81e96d92f6e6945c906a58f9f2d1c1631b4b26336200014a565b505062000464565b600262000146828262000398565b5050565b60008281526003602090815260408083206001600160a01b038516845290915290205460ff16620001465760008281526003602090815260408083206001600160a01b03851684529091529020805460ff19166001179055620001aa3390565b6001600160a01b0316816001600160a01b0316837f2f8788117e7eff1d82e926ec794901d17c78024a50270940304540a733656f0d60405160405180910390a45050565b634e487b7160e01b600052604160045260246000fd5b80516001600160a01b03811681146200021c57600080fd5b919050565b600080604083850312156200023557600080fd5b82516001600160401b03808211156200024d57600080fd5b818501915085601f8301126200026257600080fd5b815181811115620002775762000277620001ee565b604051601f8201601f19908116603f01168101908382118183101715620002a257620002a2620001ee565b81604052828152602093508884848701011115620002bf57600080fd5b600091505b82821015620002e35784820184015181830185015290830190620002c4565b6000848483010152809650505050620002fe81860162000204565b925050509250929050565b600181811c908216806200031e57607f821691505b6020821081036200033f57634e487b7160e01b600052602260045260246000fd5b50919050565b601f8211156200039357600081815260208120601f850160051c810160208610156200036e5750805b601f850160051c820191505b818110156200038f578281556001016200037a565b5050505b505050565b81516001600160401b03811115620003b457620003b4620001ee565b620003cc81620003c5845462000309565b8462000345565b602080601f831160018114620004045760008415620003eb5750858301515b600019600386901b1c1916600185901b1785556200038f565b600085815260208120601f198616915b82811015620004355788860151825594840194600190910190840162000414565b5085821015620004545787850151600019600388901b60f8161c191681555b5050505050600190811b01905550565b613d8880620004746000396000f3fe6080604052600436106102505760003560e01c806391d1485411610139578063d547741f116100b6578063ee0313731161007a578063ee03137314610817578063f160d36914610837578063f23a6e6114610857578063f242432a14610883578063f3898850146108a3578063fa383ba1146108f757600080fd5b8063d547741f14610713578063ddd9d04514610733578063e53dc68014610776578063e985e9c5146107ae578063e99cf2c6146107f757600080fd5b8063aa0b5988116100fd578063aa0b5988146105df578063aa93b128146105ff578063b337cf7414610614578063bc197c8114610634578063c39675281461067957600080fd5b806391d148541461055757806399bc4d9614610577578063a217fddf1461058a578063a22cb4651461059f578063a4d0ea61146105bf57600080fd5b806332cb6b0c116101d25780635c975abb116101965780635c975abb1461048757806375b238fc1461049f578063765587e2146104d357806380a1f712146104f357806381d12c58146105085780638456cb591461054257600080fd5b806332cb6b0c146103e357806336568abe146103fa5780633f4ba83a1461041a578063469048401461042f5780634e1273f41461046757600080fd5b8063248a9ca311610219578063248a9ca31461033b57806326232a2e1461036b578063263cb6b6146103815780632eb2c2d6146103a15780632f2ff15d146103c357600080fd5b8062fdd58e1461025557806301ffc9a7146102885780630e89341c146102b85780630fd8aee8146102e557806320df435914610307575b600080fd5b34801561026157600080fd5b50610275610270366004613042565b610917565b6040519081526020015b60405180910390f35b34801561029457600080fd5b506102a86102a3366004613082565b6109b0565b604051901515815260200161027f565b3480156102c457600080fd5b506102d86102d336600461309f565b6109bb565b60405161027f9190613108565b3480156102f157600080fd5b506102fa610a4f565b60405161027f9190613156565b34801561031357600080fd5b506102757fbf233dd2aafeb4d50879c4aa5c81e96d92f6e6945c906a58f9f2d1c1631b4b2681565b34801561034757600080fd5b5061027561035636600461309f565b60009081526003602052604090206001015490565b34801561037757600080fd5b5061027560065481565b34801561038d57600080fd5b5061027561039c366004613042565b610aa7565b3480156103ad57600080fd5b506103c16103bc3660046132b5565b610ad8565b005b3480156103cf57600080fd5b506103c16103de36600461335f565b610b24565b3480156103ef57600080fd5b50610275620f424081565b34801561040657600080fd5b506103c161041536600461335f565b610b4e565b34801561042657600080fd5b506103c1610bcc565b34801561043b57600080fd5b5060075461044f906001600160a01b031681565b6040516001600160a01b03909116815260200161027f565b34801561047357600080fd5b506102fa61048236600461338b565b610c01565b34801561049357600080fd5b5060055460ff166102a8565b3480156104ab57600080fd5b506102757fa49807205ce4d355092ef5a8a18f56e8913cf4a201fbe287825b095693c2177581565b3480156104df57600080fd5b506103c16104ee366004613456565b610d2b565b3480156104ff57600080fd5b506102fa610e62565b34801561051457600080fd5b5061052861052336600461309f565b610eb8565b60405161027f9e9d9c9b9a999897969594939291906134bc565b34801561054e57600080fd5b506103c1611150565b34801561056357600080fd5b506102a861057236600461335f565b611182565b6103c1610585366004613456565b6111ad565b34801561059657600080fd5b50610275600081565b3480156105ab57600080fd5b506103c16105ba366004613577565b6115d0565b3480156105cb57600080fd5b506102756105da3660046135c2565b6115db565b3480156105eb57600080fd5b506103c16105fa36600461309f565b611a1a565b34801561060b57600080fd5b506102a8600181565b34801561062057600080fd5b506102fa61062f3660046136a7565b611acb565b34801561064057600080fd5b5061066061064f3660046132b5565b63bc197c8160e01b95945050505050565b6040516001600160e01b0319909116815260200161027f565b34801561068557600080fd5b506106fc61069436600461309f565b600b602052600090815260409020805460018201546002830154600384015460048501546005860154600687015460078801546008890154600990990154979896976001600160a01b03909616969495939492939192909160ff80831692610100900416908b565b60405161027f9b9a999897969594939291906136c2565b34801561071f57600080fd5b506103c161072e36600461335f565b611b36565b34801561073f57600080fd5b5061027561074e366004613042565b6001600160a01b03919091166000908152600d60209081526040808320938352929052205490565b34801561078257600080fd5b50610275610791366004613042565b600d60209081526000928352604080842090915290825290205481565b3480156107ba57600080fd5b506102a86107c936600461372c565b6001600160a01b03918216600090815260016020908152604080832093909416825291909152205460ff1690565b34801561080357600080fd5b506103c1610812366004613756565b611b5b565b34801561082357600080fd5b506103c161083236600461309f565b611dca565b34801561084357600080fd5b506103c16108523660046136a7565b611ec7565b34801561086357600080fd5b50610660610872366004613789565b63f23a6e6160e01b95945050505050565b34801561088f57600080fd5b506103c161089e366004613789565b611f8e565b3480156108af57600080fd5b506108e26108be366004613042565b600e6020908152600092835260408084209091529082529020805460019091015482565b6040805192835260208301919091520161027f565b34801561090357600080fd5b506108e2610912366004613042565b611fd3565b60006001600160a01b0383166109875760405162461bcd60e51b815260206004820152602a60248201527f455243313135353a2061646472657373207a65726f206973206e6f742061207660448201526930b634b21037bbb732b960b11b60648201526084015b60405180910390fd5b506000818152602081815260408083206001600160a01b03861684529091529020545b92915050565b60006109aa8261207a565b6060600280546109ca906137ee565b80601f01602080910402602001604051908101604052809291908181526020018280546109f6906137ee565b8015610a435780601f10610a1857610100808354040283529160200191610a43565b820191906000526020600020905b815481529060010190602001808311610a2657829003601f168201915b50505050509050919050565b6060600f805480602002602001604051908101604052809291908181526020018280548015610a9d57602002820191906000526020600020905b815481526020019060010190808311610a89575b5050505050905090565b600c6020528160005260406000208181548110610ac357600080fd5b90600052602060002001600091509150505481565b6001600160a01b038516331480610af45750610af485336107c9565b610b105760405162461bcd60e51b815260040161097e90613828565b610b1d858585858561209f565b5050505050565b600082815260036020526040902060010154610b3f8161227c565b610b498383612286565b505050565b6001600160a01b0381163314610bbe5760405162461bcd60e51b815260206004820152602f60248201527f416363657373436f6e74726f6c3a2063616e206f6e6c792072656e6f756e636560448201526e103937b632b9903337b91039b2b63360891b606482015260840161097e565b610bc8828261230c565b5050565b7fbf233dd2aafeb4d50879c4aa5c81e96d92f6e6945c906a58f9f2d1c1631b4b26610bf68161227c565b610bfe612373565b50565b60608151835114610c665760405162461bcd60e51b815260206004820152602960248201527f455243313135353a206163636f756e747320616e6420696473206c656e677468604482015268040dad2e6dac2e8c6d60bb1b606482015260840161097e565b6000835167ffffffffffffffff811115610c8257610c82613169565b604051908082528060200260200182016040528015610cab578160200160208202803683370190505b50905060005b8451811015610d2357610cf6858281518110610ccf57610ccf613876565b6020026020010151858381518110610ce957610ce9613876565b6020026020010151610917565b828281518110610d0857610d08613876565b6020908102919091010152610d1c816138a2565b9050610cb1565b509392505050565b610d336123c5565b336000908152600d60209081526040808320868452909152902054821115610d945760405162461bcd60e51b8152602060048201526014602482015273496e73756666696369656e742062616c616e636560601b604482015260640161097e565b60008111610ddb5760405162461bcd60e51b815260206004820152601460248201527304475726174696f6e206d757374206265203e20360641b604482015260640161097e565b6000610de782426138bb565b6040805180820182528581526020808201848152336000818152600e84528581208b825284528590209351845590516001909301929092558251878152908101849052929350869290917f072e61b58de0f903eb598894200dfbc43fd31fa02d1dd5a39fdbc721d260ba97910160405180910390a350505050565b60606010805480602002602001604051908101604052809291908181526020018280548015610a9d5760200282019190600052602060002090815481526020019060010190808311610a89575050505050905090565b600a6020526000908152604090208054600182015460028301805492936001600160a01b0390921692610eea906137ee565b80601f0160208091040260200160405190810160405280929190818152602001828054610f16906137ee565b8015610f635780601f10610f3857610100808354040283529160200191610f63565b820191906000526020600020905b815481529060010190602001808311610f4657829003601f168201915b505050505090806003018054610f78906137ee565b80601f0160208091040260200160405190810160405280929190818152602001828054610fa4906137ee565b8015610ff15780601f10610fc657610100808354040283529160200191610ff1565b820191906000526020600020905b815481529060010190602001808311610fd457829003601f168201915b505050505090806004018054611006906137ee565b80601f0160208091040260200160405190810160405280929190818152602001828054611032906137ee565b801561107f5780601f106110545761010080835404028352916020019161107f565b820191906000526020600020905b81548152906001019060200180831161106257829003601f168201915b505050505090806005018054611094906137ee565b80601f01602080910402602001604051908101604052809291908181526020018280546110c0906137ee565b801561110d5780601f106110e25761010080835404028352916020019161110d565b820191906000526020600020905b8154815290600101906020018083116110f057829003601f168201915b5050506006840154600785015460088601546009870154600a880154600b890154600c90990154979894979396509194509260ff8083169361010090930416918e565b7fbf233dd2aafeb4d50879c4aa5c81e96d92f6e6945c906a58f9f2d1c1631b4b2661117a8161227c565b610bfe61240d565b60009182526003602090815260408084206001600160a01b0393909316845291905290205460ff1690565b6111b561244a565b6111bd6123c5565b6000838152600b602052604090206008810154610100900460ff166112175760405162461bcd60e51b815260206004820152601060248201526f4173736574206e6f742061637469766560801b604482015260640161097e565b6000831161125c5760405162461bcd60e51b81526020600482015260126024820152710416d6f756e74206d757374206265203e20360741b604482015260640161097e565b80600401548311156112a65760405162461bcd60e51b8152602060048201526013602482015272496e73756666696369656e7420737570706c7960681b604482015260640161097e565b81816005015411156112eb5760405162461bcd60e51b815260206004820152600e60248201526d0a0e4d2c6ca40e8dede40d0d2ced60931b604482015260640161097e565b6006810154156113425780600601548310156113425760405162461bcd60e51b815260206004820152601660248201527542656c6f77206d696e696d756d20707572636861736560501b604482015260640161097e565b6007810154156113c657336000908152600d60209081526040808320878452909152902054600782015461137685836138bb565b11156113c45760405162461bcd60e51b815260206004820152601860248201527f45786365656473206d6178696d756d2070657220757365720000000000000000604482015260640161097e565b505b60008382600501546113d891906138ce565b90506000612710600654836113ed91906138ce565b6113f791906138e5565b905060006114058284613907565b90508234101561144e5760405162461bcd60e51b8152602060048201526014602482015273125b9cdd59999a58da595b9d081c185e5b595b9d60621b604482015260640161097e565b6007546040516001600160a01b039091169083156108fc029084906000818181858888f19350505050158015611488573d6000803e3d6000fd5b5060028401546040516001600160a01b039091169082156108fc029083906000818181858888f193505050501580156114c5573d6000803e3d6000fd5b506114e230338989604051806020016040528060008152506124a3565b858460040160008282546114f69190613907565b925050819055508284600901600082825461151191906138bb565b9091555050336000908152600d602090815260408083208a8452909152812080548892906115409084906138bb565b90915550503483101561158557336108fc61155b8534613907565b6040518115909202916000818181858888f19350505050158015611583573d6000803e3d6000fd5b505b6040805187815260208101859052339189917f4baafac02d651b8886d3212cc69aff0fb3c687080a4fe86b0674563ac1493e82910160405180910390a350505050610b496001600455565b610bc83383836125cd565b60006115e56123c5565b600086116116355760405162461bcd60e51b815260206004820152601b60248201527f546f74616c206672616374696f6e73206d757374206265203e20300000000000604482015260640161097e565b600085116116795760405162461bcd60e51b815260206004820152601160248201527005072696365206d757374206265203e203607c1b604482015260640161097e565b60008951116116c05760405162461bcd60e51b8152602060048201526013602482015272105cdcd95d081b985b59481c995c5d5a5c9959606a1b604482015260640161097e565b60008260018111156116d4576116d4613482565b0361172c57620f424086111561172c5760405162461bcd60e51b815260206004820152601c60248201527f576569676874656420736861726573206d617820314d20756e69747300000000604482015260640161097e565b82156117be57858311156117825760405162461bcd60e51b815260206004820152601a60248201527f4d6178207075726368617365206578636565647320746f74616c000000000000604482015260640161097e565b828411156117be5760405162461bcd60e51b815260206004820152600960248201526809ad2dc407c409ac2f60bb1b604482015260640161097e565b6008805490819060006117d0836138a2565b9190505550604051806101c00160405280828152602001336001600160a01b031681526020018c81526020018b81526020018a815260200189815260200188815260200187815260200186815260200185815260200184600181111561183857611838613482565b8152602001600081526000602080830182905242604093840152848252600a81529082902083518155908301516001820180546001600160a01b0319166001600160a01b039092169190911790559082015160028201906118999082613960565b50606082015160038201906118ae9082613960565b50608082015160048201906118c39082613960565b5060a082015160058201906118d89082613960565b5060c0820151600682015560e0820151600782015561010082015160088201556101208201516009820155610140820151600a8201805460ff19166001838181111561192657611926613482565b0217905550610160820151600a8201805461ff00191661010083600381111561195157611951613482565b0217905550610180820151600b8201556101a090910151600c91820155336000818152602092835260408082208054600181810183559184529483209094018590556010805494850181559091527f1b6847dc741a1b0cd08d278845f9d819d87b734759afb55fe2de5cb82a9ae672909201839055905182907f095f0a4579226e257a354c43f6b865de82b40c69eaf778eb1355ec8df0cb50f7906119fb908e908c908c90613a20565b60405180910390a3611a0c816126a5565b9a9950505050505050505050565b7fa49807205ce4d355092ef5a8a18f56e8913cf4a201fbe287825b095693c21775611a448161227c565b6103e8821115611a855760405162461bcd60e51b815260206004820152600c60248201526b08ccaca40e8dede40d0d2ced60a31b604482015260640161097e565b600680549083905560408051828152602081018590527fd347e206f25a89b917fc9482f1a2d294d749baa4dc9bde7fb495ee11fe491643910160405180910390a1505050565b6001600160a01b0381166000908152600c6020908152604091829020805483518184028101840190945280845260609392830182828015610a4357602002820191906000526020600020905b815481526020019060010190808311611b175750505050509050919050565b600082815260036020526040902060010154611b518161227c565b610b49838361230c565b611b6361244a565b611b6b6123c5565b6001600160a01b038316611bb55760405162461bcd60e51b8152602060048201526011602482015270125b9d985b1a59081c9958da5c1a595b9d607a1b604482015260640161097e565b336000908152600d60209081526040808320858452909152902054811115611c165760405162461bcd60e51b8152602060048201526014602482015273496e73756666696369656e742062616c616e636560601b604482015260640161097e565b336000908152600e602090815260408083208584529091529020600181015415611cfa578060010154421015611c7e5760405162461bcd60e51b815260206004820152600d60248201526c14da185c995cc81b1bd8dad959609a1b604482015260640161097e565b8054336000908152600d602090815260408083208784529091528120549091611ca691613907565b905080831115611cf85760405162461bcd60e51b815260206004820152601760248201527f416d6f756e74206578636565647320756e6c6f636b6564000000000000000000604482015260640161097e565b505b611d1633858585604051806020016040528060008152506124a3565b336000908152600d6020908152604080832086845290915281208054849290611d40908490613907565b90915550506001600160a01b0384166000908152600d6020908152604080832086845290915281208054849290611d789084906138bb565b909155505060405182815283906001600160a01b0386169033907f1ba44e8b79687fed555749cae6dcccf9bc5df37a2739fbc73062f07b534cf03e9060200160405180910390a450610b496001600455565b336000908152600e6020908152604080832084845290915290206001810154611e255760405162461bcd60e51b815260206004820152600d60248201526c139bc81b1bd8dac8199bdd5b99609a1b604482015260640161097e565b8060010154421015611e685760405162461bcd60e51b815260206004820152600c60248201526b14dd1a5b1b081b1bd8dad95960a21b604482015260640161097e565b8054336000818152600e6020908152604080832087845282528083208381556001019290925590518381528592917fb018ed4ec92b38533c94560fb932f36a92ecdb6fc6e3b05a4e4b60049881679591015b60405180910390a3505050565b7fa49807205ce4d355092ef5a8a18f56e8913cf4a201fbe287825b095693c21775611ef18161227c565b6001600160a01b038216611f3b5760405162461bcd60e51b8152602060048201526011602482015270125b9d985b1a59081c9958da5c1a595b9d607a1b604482015260640161097e565b600780546001600160a01b038481166001600160a01b0319831681179093556040519116919082907faaebcf1bfa00580e41d966056b48521fa9f202645c86d4ddf28113e617c1b1d390600090a3505050565b6001600160a01b038516331480611faa5750611faa85336107c9565b611fc65760405162461bcd60e51b815260040161097e90613828565b610b1d85858585856124a3565b6000818152600b602090815260408083206001600160a01b0386168452600d83528184208585529092528220549082600882015460ff16600181111561201b5761201b613482565b0361204157620f4240612030836127106138ce565b61203a91906138e5565b9250612072565b600081600301541161205457600061206f565b6003810154612065836127106138ce565b61206f91906138e5565b92505b509250929050565b60006001600160e01b03198216637965db0b60e01b14806109aa57506109aa8261292d565b81518351146121015760405162461bcd60e51b815260206004820152602860248201527f455243313135353a2069647320616e6420616d6f756e7473206c656e677468206044820152670dad2e6dac2e8c6d60c31b606482015260840161097e565b6001600160a01b0384166121275760405162461bcd60e51b815260040161097e90613a45565b3360005b845181101561220e57600085828151811061214857612148613876565b60200260200101519050600085838151811061216657612166613876565b602090810291909101810151600084815280835260408082206001600160a01b038e1683529093529190912054909150818110156121b65760405162461bcd60e51b815260040161097e90613a8a565b6000838152602081815260408083206001600160a01b038e8116855292528083208585039055908b168252812080548492906121f39084906138bb565b9250508190555050505080612207906138a2565b905061212b565b50846001600160a01b0316866001600160a01b0316826001600160a01b03167f4a39dc06d4c0dbc64b70af90fd698a233a518aa5d07e595d983b8c0526c8f7fb878760405161225e929190613ad4565b60405180910390a4612274818787878787612952565b505050505050565b610bfe8133612ab6565b6122908282611182565b610bc85760008281526003602090815260408083206001600160a01b03851684529091529020805460ff191660011790556122c83390565b6001600160a01b0316816001600160a01b0316837f2f8788117e7eff1d82e926ec794901d17c78024a50270940304540a733656f0d60405160405180910390a45050565b6123168282611182565b15610bc85760008281526003602090815260408083206001600160a01b0385168085529252808320805460ff1916905551339285917ff6391f5c32d9c69d2a47ea670b442974b53935d1edc7fd64eb21e047a839171b9190a45050565b61237b612b0f565b6005805460ff191690557f5db9ee0a495bf2e6ff9c91a7834c1ba4fdd244a5e8aa4e537bd38aeae4b073aa335b6040516001600160a01b03909116815260200160405180910390a1565b60055460ff161561240b5760405162461bcd60e51b815260206004820152601060248201526f14185d5cd8589b194e881c185d5cd95960821b604482015260640161097e565b565b6124156123c5565b6005805460ff191660011790557f62e78cea01bee320cd4e420270b5ea74000d11b0c9f74754ebdbfc544b05a2586123a83390565b60026004540361249c5760405162461bcd60e51b815260206004820152601f60248201527f5265656e7472616e637947756172643a207265656e7472616e742063616c6c00604482015260640161097e565b6002600455565b6001600160a01b0384166124c95760405162461bcd60e51b815260040161097e90613a45565b3360006124d585612b58565b905060006124e285612b58565b90506000868152602081815260408083206001600160a01b038c168452909152902054858110156125255760405162461bcd60e51b815260040161097e90613a8a565b6000878152602081815260408083206001600160a01b038d8116855292528083208985039055908a168252812080548892906125629084906138bb565b909155505060408051888152602081018890526001600160a01b03808b16928c821692918816917fc3d58168c5ae7397731d063d5bbf3d657854427343f4c083240f7aacaa2d0f62910160405180910390a46125c2848a8a8a8a8a612ba3565b505050505050505050565b816001600160a01b0316836001600160a01b0316036126405760405162461bcd60e51b815260206004820152602960248201527f455243313135353a2073657474696e6720617070726f76616c20737461747573604482015268103337b91039b2b63360b91b606482015260840161097e565b6001600160a01b03838116600081815260016020908152604080832094871680845294825291829020805460ff191686151590811790915591519182527f17307eab39ab6107e8899845ad3d59bd9653f200f220920489ca2b5937696c319101611eba565b6000818152600a6020526040812090600a820154610100900460ff1660038111156126d2576126d2613482565b1461270d5760405162461bcd60e51b815260206004820152600b60248201526a4e6f742070656e64696e6760a81b604482015260640161097e565b60098054908190600061271f836138a2565b9091555050600a8201805461010061ff001982168117909255600b84018390556040805161016081018252848152602081018790526001808701546001600160a01b0316928201929092526006860154606082018190526080820152600786015460a0820152600886015460c0820152600986015460e08201529283019160ff16908111156127b0576127b0613482565b81526001602080830182905260006040938401819052858152600b8252839020845181559084015181830155918301516002830180546001600160a01b0319166001600160a01b03909216919091179055606083015160038301556080830151600483015560a0830151600583015560c0830151600683015560e083015160078301556101008301516008830180549192909160ff191690838181111561285957612859613482565b02179055506101208201518160080160016101000a81548160ff02191690831515021790555061014082015181600901559050506128ac3082846006015460405180602001604052806000815250612c5e565b600f80546001810182556000919091527f8d1108e10bcb7c27dddfc02ed9d693a074039d026cf4ea4240b40f7d581ac802018190556128ea83612d69565b60018201546040516001600160a01b0390911690829085907f43129459dbfacf5bce5e265a0ef46a9362d5dd4eeb6c9cf48614e4ad0398f29590600090a4505050565b60006001600160e01b03198216630271189760e51b14806109aa57506109aa82612e21565b6001600160a01b0384163b156122745760405163bc197c8160e01b81526001600160a01b0385169063bc197c81906129969089908990889088908890600401613b02565b6020604051808303816000875af19250505080156129d1575060408051601f3d908101601f191682019092526129ce91810190613b60565b60015b612a7d576129dd613b7d565b806308c379a003612a1657506129f1613b99565b806129fc5750612a18565b8060405162461bcd60e51b815260040161097e9190613108565b505b60405162461bcd60e51b815260206004820152603460248201527f455243313135353a207472616e7366657220746f206e6f6e2d455243313135356044820152732932b1b2b4bb32b91034b6b83632b6b2b73a32b960611b606482015260840161097e565b6001600160e01b0319811663bc197c8160e01b14612aad5760405162461bcd60e51b815260040161097e90613c23565b50505050505050565b612ac08282611182565b610bc857612acd81612e71565b612ad8836020612e83565b604051602001612ae9929190613c6b565b60408051601f198184030181529082905262461bcd60e51b825261097e91600401613108565b60055460ff1661240b5760405162461bcd60e51b815260206004820152601460248201527314185d5cd8589b194e881b9bdd081c185d5cd95960621b604482015260640161097e565b60408051600180825281830190925260609160009190602080830190803683370190505090508281600081518110612b9257612b92613876565b602090810291909101015292915050565b6001600160a01b0384163b156122745760405163f23a6e6160e01b81526001600160a01b0385169063f23a6e6190612be79089908990889088908890600401613ce0565b6020604051808303816000875af1925050508015612c22575060408051601f3d908101601f19168201909252612c1f91810190613b60565b60015b612c2e576129dd613b7d565b6001600160e01b0319811663f23a6e6160e01b14612aad5760405162461bcd60e51b815260040161097e90613c23565b6001600160a01b038416612cbe5760405162461bcd60e51b815260206004820152602160248201527f455243313135353a206d696e7420746f20746865207a65726f206164647265736044820152607360f81b606482015260840161097e565b336000612cca85612b58565b90506000612cd785612b58565b90506000868152602081815260408083206001600160a01b038b16845290915281208054879290612d099084906138bb565b909155505060408051878152602081018790526001600160a01b03808a1692600092918716917fc3d58168c5ae7397731d063d5bbf3d657854427343f4c083240f7aacaa2d0f62910160405180910390a4612aad83600089898989612ba3565b60005b601054811015610bc8578160108281548110612d8a57612d8a613876565b906000526020600020015403612e0f5760108054612daa90600190613907565b81548110612dba57612dba613876565b906000526020600020015460108281548110612dd857612dd8613876565b6000918252602090912001556010805480612df557612df5613d25565b600190038181906000526020600020016000905590555050565b80612e19816138a2565b915050612d6c565b60006001600160e01b03198216636cdb3d1360e11b1480612e5257506001600160e01b031982166303a24d0760e21b145b806109aa57506301ffc9a760e01b6001600160e01b03198316146109aa565b60606109aa6001600160a01b03831660145b60606000612e928360026138ce565b612e9d9060026138bb565b67ffffffffffffffff811115612eb557612eb5613169565b6040519080825280601f01601f191660200182016040528015612edf576020820181803683370190505b509050600360fc1b81600081518110612efa57612efa613876565b60200101906001600160f81b031916908160001a905350600f60fb1b81600181518110612f2957612f29613876565b60200101906001600160f81b031916908160001a9053506000612f4d8460026138ce565b612f589060016138bb565b90505b6001811115612fd0576f181899199a1a9b1b9c1cb0b131b232b360811b85600f1660108110612f8c57612f8c613876565b1a60f81b828281518110612fa257612fa2613876565b60200101906001600160f81b031916908160001a90535060049490941c93612fc981613d3b565b9050612f5b565b50831561301f5760405162461bcd60e51b815260206004820181905260248201527f537472696e67733a20686578206c656e67746820696e73756666696369656e74604482015260640161097e565b9392505050565b80356001600160a01b038116811461303d57600080fd5b919050565b6000806040838503121561305557600080fd5b61305e83613026565b946020939093013593505050565b6001600160e01b031981168114610bfe57600080fd5b60006020828403121561309457600080fd5b813561301f8161306c565b6000602082840312156130b157600080fd5b5035919050565b60005b838110156130d35781810151838201526020016130bb565b50506000910152565b600081518084526130f48160208601602086016130b8565b601f01601f19169290920160200192915050565b60208152600061301f60208301846130dc565b600081518084526020808501945080840160005b8381101561314b5781518752958201959082019060010161312f565b509495945050505050565b60208152600061301f602083018461311b565b634e487b7160e01b600052604160045260246000fd5b601f8201601f1916810167ffffffffffffffff811182821017156131a5576131a5613169565b6040525050565b600067ffffffffffffffff8211156131c6576131c6613169565b5060051b60200190565b600082601f8301126131e157600080fd5b813560206131ee826131ac565b6040516131fb828261317f565b83815260059390931b850182019282810191508684111561321b57600080fd5b8286015b84811015613236578035835291830191830161321f565b509695505050505050565b600082601f83011261325257600080fd5b813567ffffffffffffffff81111561326c5761326c613169565b604051613283601f8301601f19166020018261317f565b81815284602083860101111561329857600080fd5b816020850160208301376000918101602001919091529392505050565b600080600080600060a086880312156132cd57600080fd5b6132d686613026565b94506132e460208701613026565b9350604086013567ffffffffffffffff8082111561330157600080fd5b61330d89838a016131d0565b9450606088013591508082111561332357600080fd5b61332f89838a016131d0565b9350608088013591508082111561334557600080fd5b5061335288828901613241565b9150509295509295909350565b6000806040838503121561337257600080fd5b8235915061338260208401613026565b90509250929050565b6000806040838503121561339e57600080fd5b823567ffffffffffffffff808211156133b657600080fd5b818501915085601f8301126133ca57600080fd5b813560206133d7826131ac565b6040516133e4828261317f565b83815260059390931b850182019282810191508984111561340457600080fd5b948201945b838610156134295761341a86613026565b82529482019490820190613409565b9650508601359250508082111561343f57600080fd5b5061344c858286016131d0565b9150509250929050565b60008060006060848603121561346b57600080fd5b505081359360208301359350604090920135919050565b634e487b7160e01b600052602160045260246000fd5b600281106134a8576134a8613482565b9052565b600481106134a8576134a8613482565b8e81526001600160a01b038e1660208201526101c0604082015260006134e66101c083018f6130dc565b82810360608401526134f8818f6130dc565b9050828103608084015261350c818e6130dc565b905082810360a0840152613520818d6130dc565b9150508960c08301528860e0830152876101008301528661012083015261354b610140830187613498565b6135596101608301866134ac565b6101808201939093526101a001529c9b505050505050505050505050565b6000806040838503121561358a57600080fd5b61359383613026565b9150602083013580151581146135a857600080fd5b809150509250929050565b80356002811061303d57600080fd5b60008060008060008060008060006101208a8c0312156135e157600080fd5b893567ffffffffffffffff808211156135f957600080fd5b6136058d838e01613241565b9a5060208c013591508082111561361b57600080fd5b6136278d838e01613241565b995060408c013591508082111561363d57600080fd5b6136498d838e01613241565b985060608c013591508082111561365f57600080fd5b5061366c8c828d01613241565b96505060808a0135945060a08a0135935060c08a0135925060e08a013591506136986101008b016135b3565b90509295985092959850929598565b6000602082840312156136b957600080fd5b61301f82613026565b8b8152602081018b90526001600160a01b038a166040820152606081018990526080810188905260a0810187905260c0810186905260e081018590526101608101613711610100830186613498565b92151561012082015261014001529998505050505050505050565b6000806040838503121561373f57600080fd5b61374883613026565b915061338260208401613026565b60008060006060848603121561376b57600080fd5b61377484613026565b95602085013595506040909401359392505050565b600080600080600060a086880312156137a157600080fd5b6137aa86613026565b94506137b860208701613026565b93506040860135925060608601359150608086013567ffffffffffffffff8111156137e257600080fd5b61335288828901613241565b600181811c9082168061380257607f821691505b60208210810361382257634e487b7160e01b600052602260045260246000fd5b50919050565b6020808252602e908201527f455243313135353a2063616c6c6572206973206e6f7420746f6b656e206f776e60408201526d195c881bdc88185c1c1c9bdd995960921b606082015260800190565b634e487b7160e01b600052603260045260246000fd5b634e487b7160e01b600052601160045260246000fd5b6000600182016138b4576138b461388c565b5060010190565b808201808211156109aa576109aa61388c565b80820281158282048414176109aa576109aa61388c565b60008261390257634e487b7160e01b600052601260045260246000fd5b500490565b818103818111156109aa576109aa61388c565b601f821115610b4957600081815260208120601f850160051c810160208610156139415750805b601f850160051c820191505b818110156122745782815560010161394d565b815167ffffffffffffffff81111561397a5761397a613169565b61398e8161398884546137ee565b8461391a565b602080601f8311600181146139c357600084156139ab5750858301515b600019600386901b1c1916600185901b178555612274565b600085815260208120601f198616915b828110156139f2578886015182559484019460019091019084016139d3565b5085821015613a105787850151600019600388901b60f8161c191681555b5050505050600190811b01905550565b606081526000613a3360608301866130dc565b60208301949094525060400152919050565b60208082526025908201527f455243313135353a207472616e7366657220746f20746865207a65726f206164604082015264647265737360d81b606082015260800190565b6020808252602a908201527f455243313135353a20696e73756666696369656e742062616c616e636520666f60408201526939103a3930b739b332b960b11b606082015260800190565b604081526000613ae7604083018561311b565b8281036020840152613af9818561311b565b95945050505050565b6001600160a01b0386811682528516602082015260a060408201819052600090613b2e9083018661311b565b8281036060840152613b40818661311b565b90508281036080840152613b5481856130dc565b98975050505050505050565b600060208284031215613b7257600080fd5b815161301f8161306c565b600060033d1115613b965760046000803e5060005160e01c5b90565b600060443d1015613ba75790565b6040516003193d81016004833e81513d67ffffffffffffffff8160248401118184111715613bd757505050505090565b8285019150815181811115613bef5750505050505090565b843d8701016020828501011115613c095750505050505090565b613c186020828601018761317f565b509095945050505050565b60208082526028908201527f455243313135353a204552433131353552656365697665722072656a656374656040820152676420746f6b656e7360c01b606082015260800190565b7f416363657373436f6e74726f6c3a206163636f756e7420000000000000000000815260008351613ca38160178501602088016130b8565b7001034b99036b4b9b9b4b733903937b6329607d1b6017918401918201528351613cd48160288401602088016130b8565b01602801949350505050565b6001600160a01b03868116825285166020820152604081018490526060810183905260a060808201819052600090613d1a908301846130dc565b979650505050505050565b634e487b7160e01b600052603160045260246000fd5b600081613d4a57613d4a61388c565b50600019019056fea264697066735822122027a2379aa78097ee163ea2e41a9898a31d550ecc4a2381f02668a388605fa7a864736f6c63430008140033",
  "linkReferences": {},
  "deployedLinkReferences": {}
}